:020000040000FA
:040000000DEF00F010
:020008001000E6
:0800180010000F01896A386B2A
:1000200092908A6A396B0F0E936E8C6A3B6B000E4E
:10003000956E8080FF0E006E84D8FF0E00600DD09C
:100040000050ACEC00F0836E838E640E30EC00F058
:10005000839EFA0E30EC00F001D0839E1CEF00F07E
:10006000036E040E026EA50E016E012E35EF00F038
:10007000022E33EF00F0032E31EF00F01200819AD0
:10008000819C819E818881A003D0010E006E58D092
:1000900081A203D0040E006E53D081A403D0070EBA
:1000A000006E4ED081A603D00F0E006E49D0819C09
:1000B000819E8198818A81A003D0020E006E40D07B
:1000C00081A203D0050E006E3BD081A403D0080EA0
:1000D000006E36D081A602D0006A32D0819E81980F
:1000E000819A818C81A003D0030E006E29D081A259
:1000F00003D0060E006E24D081A403D0090E006E3A
:100100001FD081A603D00E0E006E1AD08198819A5E
:10011000819C818E81A003D00A0E006E11D081A235
:1001200003D00B0E006E0CD081A403D00C0E006E19
:1001300007D081A603D00D0E006E02D0FF0E006E18
:1001400012009DDF0050FF0A04E0640E89DF97DF94
:10015000F7D7FF0E006E1200E846F9263F0C060C9A
:100160005B0C4F0C660C6D0C7D0C070C7F0C6F0C40
:0C017000770C7C0C390C5E0C790C710CC7
:020000040030CA
:03000100231E3C7F
:02000500BF85B5
:060008000FC00FE00F40E5
:00000001FF
